{
  "transactions": [
    {
      "hash": "0x672ce32de387822f7cc510ff532a4a4873f7dee4b13e95425de401306baef467",
      "transactionType": "CREATE",
      "contractName": "BoxV2",
      "contractAddress": "0xdb2ac21f2251d309ea62c4e9b8244abf376793f5",
      "function": null,
      "arguments": null,
      "transaction": {
        "from": "0x897527501d5f191080060f435f6ad6b36b8a66c2",
        "gas": "0x87bcd",
        "value": "0x0",
        "input": "0x60a060405230608052348015601357600080fd5b506080516106c961003d6000396000818161015c0152818161018501526102ca01526106c96000f3fe6080604052600436106100555760003560e01c80633fb5c1cb1461005a5780634f1ef2861461007c57806352d1902d1461008f57806354fd4d50146100b7578063ad3cb1cc146100cb578063f2c9ecd814610109575b600080fd5b34801561006657600080fd5b5061007a6100753660046104e0565b600055565b005b61007a61008a36600461050f565b61011e565b34801561009b57600080fd5b506100a4610134565b6040519081526020015b60405180910390f35b3480156100c357600080fd5b5060026100a4565b3480156100d757600080fd5b506100fc604051806040016040528060058152602001640352e302e360dc1b81525081565b6040516100ae919061060b565b34801561011557600080fd5b506000546100a4565b610126610151565b61013082826101f8565b5050565b600061013e6102bf565b5060008051602061067483398151915290565b306001600160a01b037f00000000000000000000000000000000000000000000000000000000000000001614806101d857507f00000000000000000000000000000000000000000000000000000000000000006001600160a01b03166101cc600080516020610674833981519152546001600160a01b031690565b6001600160a01b031614155b156101f65760405163703e46dd60e11b815260040160405180910390fd5b565b816001600160a01b03166352d1902d6040518163ffffffff1660e01b8152600401602060405180830381865afa925050508015610252575060408051601f3d908101601f1916820190925261024f9181019061063e565b60015b61027f57604051634c9c8ce360e01b81526001600160a01b03831660048201526024015b60405180910390fd5b60008051602061067483398151915281146102b057604051632a87526960e21b815260048101829052602401610276565b6102ba8383610308565b505050565b306001600160a01b037f000000000000000000000000000000000000000000000000000000000000000016146101f65760405163703e46dd60e11b815260040160405180910390fd5b6103118261035e565b6040516001600160a01b038316907fbc7cd75a20ee27fd9adebab32041f755214dbc6bffa90cc0225b39da2e5c2d3b90600090a2805115610356576102ba82826103c3565b610130610439565b806001600160a01b03163b60000361039457604051634c9c8ce360e01b81526001600160a01b0382166004820152602401610276565b60008051602061067483398151915280546001600160a01b0319166001600160a01b0392909216919091179055565b6060600080846001600160a01b0316846040516103e09190610657565b600060405180830381855af49150503d806000811461041b576040519150601f19603f3d011682016040523d82523d6000602084013e610420565b606091505b5091509150610430858383610458565b95945050505050565b34156101f65760405163b398979f60e01b815260040160405180910390fd5b60608261046d57610468826104b7565b6104b0565b815115801561048457506001600160a01b0384163b155b156104ad57604051639996b31560e01b81526001600160a01b0385166004820152602401610276565b50805b9392505050565b8051156104c75780518082602001fd5b604051630a12f52160e11b815260040160405180910390fd5b6000602082840312156104f257600080fd5b5035919050565b634e487b7160e01b600052604160045260246000fd5b6000806040838503121561052257600080fd5b82356001600160a01b038116811461053957600080fd5b9150602083013567ffffffffffffffff81111561055557600080fd5b8301601f8101851361056657600080fd5b803567ffffffffffffffff811115610580576105806104f9565b604051601f8201601f19908116603f0116810167ffffffffffffffff811182821017156105af576105af6104f9565b6040528181528282016020018710156105c757600080fd5b816020840160208301376000602083830101528093505050509250929050565b60005b838110156106025781810151838201526020016105ea565b50506000910152565b602081526000825180602084015261062a8160408501602087016105e7565b601f01601f19169190910160400192915050565b60006020828403121561065057600080fd5b5051919050565b600082516106698184602087016105e7565b919091019291505056fe360894a13ba1a3210667c828492db98dca3e2076cc3735a920a3ca505d382bbca26469706673582212208a19a52458d9795550054966d37e78a9b1533a6be25b689159b06b00870dd09064736f6c634300081a0033",
        "nonce": "0x40",
        "chainId": "0xaa36a7"
      },
      "additionalContracts": [],
      "isFixedGasLimit": false
    },
    {
      "hash": "0xb71b08c95f03be960fc10ad81dfd27d66c1bd1784277f952d204ea59688df723",
      "transactionType": "CALL",
      "contractName": null,
      "contractAddress": "0x1e06a3d8087219bfccfa2bcd21be865a813895b1",
      "function": "upgradeToAndCall(address,bytes)",
      "arguments": [
        "0xDB2ac21f2251D309EA62c4E9b8244aBF376793f5",
        "0x"
      ],
      "transaction": {
        "from": "0x897527501d5f191080060f435f6ad6b36b8a66c2",
        "to": "0x1e06a3d8087219bfccfa2bcd21be865a813895b1",
        "gas": "0xbe84",
        "value": "0x0",
        "input": "0x4f1ef286000000000000000000000000db2ac21f2251d309ea62c4e9b8244abf376793f500000000000000000000000000000000000000000000000000000000000000400000000000000000000000000000000000000000000000000000000000000000",
        "nonce": "0x41",
        "chainId": "0xaa36a7"
      },
      "additionalContracts": [],
      "isFixedGasLimit": false
    }
  ],
  "receipts": [
    {
      "status": "0x1",
      "cumulativeGasUsed": "0x104fac8",
      "logs": [],
      "logsBloom": "0x00000000000000000000000000000000000000000000000000000000000000000000000000000000000000000000000000000000000000000000000000000000000000000000000000000000000000000000000000000000000000000000000000000000000000000000000000000000000000000000000000000000000000000000000000000000000000000000000000000000000000000000000000000000000000000000000000000000000000000000000000000000000000000000000000000000000000000000000000000000000000000000000000000000000000000000000000000000000000000000000000000000000000000000000000000000",
      "type": "0x2",
      "transactionHash": "0x672ce32de387822f7cc510ff532a4a4873f7dee4b13e95425de401306baef467",
      "transactionIndex": "0x6b",
      "blockHash": "0xfac3d00641acd452c9eed9da94437dbcd0d5065a77ebf3aeafe0a26c48556d15",
      "blockNumber": "0x68559a",
      "gasUsed": "0x68710",
      "effectiveGasPrice": "0x1048ecb2",
      "from": "0x897527501d5f191080060f435f6ad6b36b8a66c2",
      "to": null,
      "contractAddress": "0xdb2ac21f2251d309ea62c4e9b8244abf376793f5"
    },
    {
      "status": "0x1",
      "cumulativeGasUsed": "0x10584b7",
      "logs": [
        {
          "address": "0x1e06a3d8087219bfccfa2bcd21be865a813895b1",
          "topics": [
            "0xbc7cd75a20ee27fd9adebab32041f755214dbc6bffa90cc0225b39da2e5c2d3b",
            "0x000000000000000000000000db2ac21f2251d309ea62c4e9b8244abf376793f5"
          ],
          "data": "0x",
          "blockHash": "0xfac3d00641acd452c9eed9da94437dbcd0d5065a77ebf3aeafe0a26c48556d15",
          "blockNumber": "0x68559a",
          "transactionHash": "0xb71b08c95f03be960fc10ad81dfd27d66c1bd1784277f952d204ea59688df723",
          "transactionIndex": "0x6c",
          "logIndex": "0xda",
          "removed": false
        }
      ],
      "logsBloom": "0x00000000200000000000000000000000400000000000000000000000000000000000000000000000000000000000000000000000000000000000000000000000000000000000000004000000000002000000000000000000000000000000000000000000000000000000000000400000000000000000000000000000000000000000000004000000000000000000000000000000000000000000000000000000000000000000000000000000000000000000000000000000000000000000000000000020000000000000000000000000000000000000000000000020000000000000000000000000000000000000000001000000000000000000000000000000",
      "type": "0x2",
      "transactionHash": "0xb71b08c95f03be960fc10ad81dfd27d66c1bd1784277f952d204ea59688df723",
      "transactionIndex": "0x6c",
      "blockHash": "0xfac3d00641acd452c9eed9da94437dbcd0d5065a77ebf3aeafe0a26c48556d15",
      "blockNumber": "0x68559a",
      "gasUsed": "0x89ef",
      "effectiveGasPrice": "0x1048ecb2",
      "from": "0x897527501d5f191080060f435f6ad6b36b8a66c2",
      "to": "0x1e06a3d8087219bfccfa2bcd21be865a813895b1",
      "contractAddress": null
    }
  ],
  "libraries": [],
  "pending": [],
  "returns": {
    "0": {
      "internal_type": "address",
      "value": "0x1e06a3d8087219BFCcfA2bcD21bE865A813895B1"
    }
  },
  "timestamp": 1728383582,
  "chain": 11155111,
  "commit": "b3b8463"
}